S01C0000626C696E6B5F6C65645F73696D756C6174696F6E2E73726563C0
S11300000C9434000C943E000C943E000C943E007E
S11300100C943E000C943E000C943E000C943E0064
S11300200C943E000C943E000C943E000C943E0054
S11300300C943E000C943E000C943E000C943E0044
S11300400C943E000C943E000C943E000C943E0034
S11300500C943E000C943E000C943E000C943E0024
S11300600C943E000C943E0011241FBECFEFD8E048
S1130070DEBFCDBF0E9445000C9453000C940000D9
S113008025982D9A08952D9A08950E9440000E9463
S113009043002FEF83ED90E3215080409040E1F73F
S10D00A000C00000F4CFF894FFCF75
S9030000FC
